:1006E90041540D0A0041542B434D47463D310D0AF3
:1006F9000041542B435343533D22495241220D0A91
:100709000041542B43534D503D31372C31312C305E
:100719002C300D0A0041542B434D47533D223133B0
:10072900333538383232303836220D0A005468658C
:1007390020736F696C206D6F6973747572652069B8
:100749007320746F6F206C6F772C20706C656173E8
:1007590065206E6F7465210053797374656D204946
:100769006E69742E2E2E2E00496E6974204F4B210E
:100779000054002D0048004C004175746F004D6114
:100789006E75005365742054656D702048696768FB
:100799003A005365742054656D70204C6F773A00A8
:1007A9005365742048756D692056616C75653A000A
:1007B900536574204C6967687420486967683A0012
:1007C900536574204C69676874204C6F773A0053FD
:1007D900657420576F726B4D6F64653A004175748B
:0F07E9006F4D6F6465004D616E75616C2020006F
:100B490001301901321401224601231E01211E011F
:100B59002B00013800013900013100012A00012D63
:100B690000012F00013700012E0002350000012C81
:010B7900007B
:0B0CA900EF1FAC0670011E4C70F6221D
:090BA5007F38120C627F057E000E
:100BAE00E4FDFCC3ED9FEC9E5015E4FBFA0BBB007D
:0F0BBE00010AEB646E4A70F50DBD00010C80E476
:010BCD002205
:100C4A00C292D290C2918F807F017E00120BAED2E7
:080C5A00920F120BAEC29222B0
:100C6200C292C290C2918F807F017E00120BAED2DF
:080C7200920F120BAEC2922298
:100C7A00120BA5120BA5120BA57F0C120C627F0694
:080C8A00120C627F01020C62F2
:0D0B7B00E52175F00A84E5F02430FB7D01D2
:100B8800AE07A90353050153060FED600343064062
:0D0B9800430680AF06120C62AF01020C4A4A
:050B07007BFFE4FDFF8F
:0A0B0C008F0B8D0C8B0D8A0E890FE4
:100B1600E4F510530C01530B0FAB0DAA0EA90F856C
:100B26001082758300120811FBD394194014E50B4B
:100B3600D3940F50E4AD0CAF0B120B880510050BC8
:020B460080D756
:010B4800228A
:10096700C374FF9FFFE49400FE7C007D6412083E81
:0D0977007DFF1208508E338F34D200D20164
:10098400C2A70000D2A5D2A60000C2A60000A20001
:1009940092A5D2A60000C2A60000A20192A5D2A6EA
:1009A4000000C2A6D2A5E4FFFEEF25E0FFD2A60018
:1009B40000C2A60000A2A5E43342070EBE08EAE482
:1009C400FD30A5027D80E4FEEDC313FDD2A6000038
:1009D400C2A6000030A5034305800EBE07EAD2A7D5
:0B09E400C2A6D2A5EFB50501227F00DE
:0109EF0022E5
:100BCE00D2937F017E00120CA9C2937F507E001239
:100BDE000CA9D2937F0A7E00120CA9A29392007FD9
:080BEE00147E00120CA9D29341
:010BF60022DC
:020C1500AD0729
:100C1700E4FBC293ED1392937F057E00120CA9D2D9
:090C270093EDC313FD0BBB08E9BA
:010C300022A1
:100BF700E4FBC293EDC313FDD29330930343058007
:0D0C07007F057E00120CA90BBB08E7AF05AE
:010C140022BD
:100ABA00C374FF9FFFE49400FE7C007D6412083E2D
:090ACA007DFF1208508E3A8F3BAB
:100AD300120BCE7FCC120C157F44120C157F327E85
:100AE30000120CA9120BCE7FCC120C157FBE120C78
:100AF30015120BF7AA07120BF7EFFE7C00E42AFF8F
:030B0300EC3EFEC7
:010B060022CC
:100C9200759850438920758DFD758BFDD28ED2AC2F
:070CA200D2AFC299C29822F3
:080CB4008F993099FDC29922CD
:060C31007BFF7A0679E961
:100C37001207F8FF600C120CB4740129F9E43AFAB0
:030C470080EE221A
:100A6300120C317FC87E00120BAE7BFF7A0679EE43
:100A7300120C377FC8120BAE7BFF7A0679FA120C81
:100A8300377FC8120BAE7BFF7A07790A120C377FC8
:100A9300C8120BAE7BFF7A07791E120C377FF40E58
:100AA300120BAE7BFF7A077936120C377FC81E1202
:070AB3000BAE7F1A020CB428
:1009F0008D828C83A907E97032D294C295C296C2C7
:100A000097AF82AE83120BAEC294D295C296C297B4
:100A1000120BAEC294C295D296C297120BAEC2947C
:100A2000C295C296D297120BAEC297E9640170329A
:100A3000C294C295C296D297AF82AE83120BAEC259
:100A400094C295D296C297120BAEC294D295C2961A
:100A5000C297120BAED294C295C296C297120BAE39
:030A6000C294221B
:10000300120C7A7A077961120B077F2C7E01120B8F
:10001300AE120C92D200C201120984120967120AAD
:10002300BA8E098F0A7F887E13120BAE120BAE12A3
:100033000BAE120C317A0779717D01E4FF120B0CC0
:100043007F887E13120BAE7F01120C62E52B6003D7
:1000530002044AD200C201120984120967120ABAC1
:100063008E098F0A7C007D101208A58E248F257AB5
:1000730007797A120B07AE24AF257C007D0A12089C
:1000830050EF2430FBE4FD7F01120B88AE24AF2533
:100093007C007D0A120850ED2430FBE4FD7F021240
:1000A3000B887BFF7A07797CE4FD7F03120B0CE559
:1000B3003075F00A842430FBE4FD7F04120B88E5DD
:1000C3003075F00A84E5F02430FBE4FD7F05120B64
:1000D300887BFF7A07797CE4FD7F06120B0CE532FF
:1000E30075F00A842430FBE4FD7F07120B88E532A8
:1000F30075F00A84E5F02430FBE4FD7F08120B88D9
:100103007BFF7A07797E7D017F0A120B0CAE3AAF33
:100113003B7C007D0A1208507C007D0A120850EDDA
:100123002430FB7D017F0B120B88AE3AAF3B7C0082
:100133007D0A120850ED2430FB7D017F0C120B88E1
:100143007B2D7D017F0D120B88E52175F00A8475E7
:10015300F00A84E5F02430FB7D017F0E120B887FCB
:100163000F120B7B7BFF7A0779807D01E4FF120B73
:100173000CAE33AF347C007D0A1208507C007D0A3C
:10018300120850ED2430FB7D017F01120B88AE3342
:10019300AF347C007D0A120850ED2430FB7D017FD3
:1001A30002120B887B2D7D017F03120B88E52275DC
:1001B300F00A8475F00A84E5F02430FB7D017F04A6
:1001C300120B88E52275F00A84E5F02430FB7D01EB
:1001D3007F05120B887B2D7D017F06120B88E5239B
:1001E30075F00A8475F00A84E5F02430FB7D017F05
:1001F30007120B88E52375F00A84E5F02430FB7DB4
:10020300017F08120B88C3E53B9521E53A94005022
:1002130013E52D700F120A637FD07E07120BAE75A4
:100223002D018010C3E53B9521E53A94004005E498
:10023300F52DF508E52AB40131E52CB4012C7D0533
:100243007C007F011209F0C3E536942CE535940157
:1002530050080536E53670020535E536642C700422
:10026300E53564017033F52C802FE52A640160299C
:10027300E52CB401247D057C00E4FF1209F0D3E5ED
:10028300369400E53594004008E5361536700215BE
:1002930035E53645357002F52CE53960030203AFC9
:1002A3007BFF7A077982FD7F0A120B0CAF307E0049
:1002B300D3E5259FE5249E4010E5316401600AC221
:1002C300A0752F01753101805FC3E5259FE5249E4D
:1002D3005019C3E5259532E5249400400EE531B469
:1002E3000109D2A0E4F52FF531803DAF327E00C382
:1002F300E5259FE5249E5010E5316402600AC2A102
:100303007537017531028020D3E5259FE5249E4092
:1003130017D3E5259530E5249400500CE531B4025C
:1003230007D2A1E4F537F531AF237E00C3E5349F4F
:10033300E5339E5011E52A6402600B752A02C2A2BE
:10034300752E0102044AD3E5349FE5339E401AD348
:10035300E5349522E5339400500FE52AB4020AE40C
:10036300F52AD2A2F52E02044AAF227E00D3E53449
:100373009FE5339E400BE52A64016005752A0180E1
:1003830025C3E5349FE5339E400302044AC3E534A5
:100393009523E5339400500302044AE52A6401607F
:1003A3000302044AF52A752C0102044AE539640163
:1003B300600302044A7BFF7A077987FD7F0A120BE9
:1003C3000C20B51E120BAA20B518E52F7007C2A08A
:1003D300752F01800AE52FB40105D2A0E4F52F3073
:1003E300B5FD20B61E120BAA20B618E5377007C25A
:1003F300A1753701800AE537B40105D2A1E4F537C9
:1004030030B6FD20A320120BAA20A31AE52A7008F8
:10041300752C01752A01800BE52AB40106752C01A0
:10042300E4F52A30A3FD20B71E120BAA20B718E566
:100433002E7007C2A2752E01800AE52EB40105D2E3
:10044300A2E4F52E30B7FDE52B6401707220B31BD7
:100453007F05FE120BAE20B3120530E530D3943284
:100463004006E5322405F53030B3FD20B423120BEA
:10047300AA20B41D1530E5322405FFEE33FEC3E593
:10048300309FEE6480F8748098500375303230B436
:10049300FD7BFF7A07798CE4FDFF120B0CE53075C9
:1004A300F00A842430FB7D01E4FF120B88E53075EC
:1004B300F00A84E5F02430FB7D017F01120B88E50F
:1004C3002B6402706820B31C7F05FE120BAE20B3B1
:1004D300130532E53024FBFFE532D39F4003753229
:1004E3000A30B3FD20B418120BAA20B4121532E55A
:1004F30032C3940A5006E53024FBF53230B4FD7B59
:10050300FF7A07799BE4FDFF120B0CE53275F00AC5
:10051300842430FB7D01E4FF120B88E53275F00A79
:1005230084E5F02430FB7D017F01120B88E52B6409
:1005330003705820B31A7F05FE120BAE20B311745B
:10054300052521F521D3945A400375210A30B3FDC3
:1005530020B417120BAA20B41174FB2521F521C373
:10056300940A500375215A30B4FD7BFF7A0779A9A9
:10057300E4FDFF120B0CE52175F00A842430FB7DAA
:1005830001E4FF120B887F01120B7BE52B640470DF
:100593006E20B31D7F05FE120BAE20B31474052528
:1005A30022F522D3945A4006E523240AF52230B3D8
:1005B300FD20B41D120BAA20B41774FB2522F522CB
:1005C300E52324F6FFE522C39F500375225A30B476
:1005D300FD7BFF7A0779B9E4FDFF120B0CE5227569
:1005E300F00A842430FB7D01E4FF120B88E52275B9
:1005F300F00A84E5F02430FB7D017F01120B88E5CE
:100603002B6405706E20B3207F05FE120BAE20B362
:100613001774052523F523E52224F6FFE523D39F4D
:10062300400375235A30B3FD20B41A120BAA20B429
:100633001474FB2523F523C3940A5006E52224F6FC
:10064300F52330B4FD7BFF7A0779C9E4FDFF120B74
:100653000CE52375F00A842430FB7D01E4FF120BC3
:1006630088E52375F00A84E5F02430FB7D017F01E2
:10067300120B88E52B6406705F20B3187F05FE120A
:100683000BAE20B30FE53970057539018003E4F52E
:100693003930B3FD20B415120BAA20B40FE539701D
:1006A300057539018003E4F53930B4FD7BFF7A0722
:1006B30079D8E4FDFF120B0CE539700A7BFF7A074A
:1006C30079E67D01800EE539B4010D7BFF7A077968
:1006D300EF7D01E4FF120B0CE52B640760030200BE
:0606E3004FF52B02004F51
:030000000208DB18
:0C08DB00787FE4F6D8FD75813B0209220D
:1007F800BB010689828A83E0225002E722BBFE02FF
:09080800E32289828A83E4932231
:10081100BB010CE58229F582E5833AF583E022509C
:1008210006E92582F8E622BBFE06E92582F8E222E6
:0D083100E58229F582E5833AF583E4932200
:10083E00EF8DF0A4A8F0CF8CF0A428CE8DF0A42ECE
:02084E00FE2288
:10085000BC000BBE0029EF8DF084FFADF022E4CC8C
:10086000F875F008EF2FFFEE33FEEC33FCEE9DEC55
:10087000984005FCEE9DFE0FD5F0E9E4CEFD22ED9B
:10088000F8F5F0EE8420D21CFEADF075F008EF2FE5
:10089000FFED33FD4007985006D5F0F222C398FDD6
:0508A0000FD5F0EA2273
:1008A500C2D5EC30E709B2D5E4C39DFDE49CFCEE6E
:1008B50030E715B2D5E4C39FFFE49EFE120850C38E
:1008C500E49DFDE49CFC800312085030D507C3E489
:0608D5009FFFE49EFE22DD
:1008E700020003E493A3F8E493A34003F68001F224
:1008F70008DFF48029E493A3F85407240CC8C33312
:10090700C4540F4420C8834004F456800146F6DFE0
:10091700E4800B0102040810204080900B49E47E1C
:10092700019360BCA3FF543F30E509541FFEE493D5
:10093700A360010ECF54C025E060A840B8E493A39C
:10094700FAE493A3F8E493A3C8C582C8CAC583CAC7
:10095700F0A3C8C582C8CAC583CADFE9DEE780BE7F
:010B7A00007A
:00000001FF
